:020000040800F2
:1000000000000120556400088D0800088F080008D2
:1000100091080008930800089508000800000000F7
:10002000000000000000000000000000814D0008FA
:100030009708000800000000214E0008854E0008C7
:10004000A5640008A5640008A5640008A56400086C
:10005000A5640008A5640008A5640008A56400085C
:10006000A5640008A5640008A5640008A56400084C
:10007000A5640008A5640008A5640008A56400083C
:10008000A5640008A5640008A5640008000000003D
:10009000000000000000000000000000A56400084F
:1000A000A564000899080008A5640008A564000874
:1000B000A5640008A5640008A5640008A5640008FC
:1000C000A5640008A5640008A5640008A5640008EC
:1000D000A56400082D630008A56400080000000066
:1000E000A5640008A5640008A564000800000000DD
:1000F000000000000000000000000000A5640008EF
:1001000000000000A5640008A5640008A5640008BC
:1001100000000000000000000000000000000000DF
:10012000A5640008A5640008A5640008A56400088B
:10013000A5640008000000000000000000000000AE
:10014000000000000000000000000000A9080008F6
:10015000A5640008A5640008A5640008A56400085B
:10016000A5640008A564000800000000000000006D
:10017000000000000000000000000000000000007F
:1001800000000000A564000800000000000000005E
:04019000A56400085A
:1001A00010B5054C237833B9044B13B10448AFF3B1
:1001B00000800123237010BD6C01002000000000AE
:1001C000406E000808B5034B1BB103490348AFF369
:1001D000008008BD0000000070010020406E000893
:1001E000F0B400EB4003DFF8880000EBC30000F13F
:1001F00018063069F7687568874232D3B368DC1B2C
:10020000631E934214D37D19D01900BF11F8013B2E
:1002100005F8013B013A05D011F8013B05F8013B17
:10022000013AF3D1BFF35F8FF0600120F0BC70475B
:10023000C018904219D37819121B11F8013B00F82D
:10024000013B013CF9D1141C05D011F8013B05F824
:10025000013B013AF9D1BFF35F8FF4600120F0BC9C
:100260007047C01B01389042CDD20020F0BC7047CF
:10027000A457002000000000000000000000000063
:1002800001F0FF01102A2BDB10F0070F08D010F847
:10029000013B013A8B422DD010F0070F42B3F6D14B
:1002A000F0B441EA012141EA014122F007047FF064
:1002B00000070023F0E80256083C85EA010586EABB
:1002C000010685FA47F5A3FA87F586FA47F6A5FAF7
:1002D00087F68EB9EED1F0BC01F0FF0102F0070203
:1002E00032B110F8013B013A83EA010313B1F8D1AE
:1002F0000020704701387047002D06BF354603388F
:10030000073815F0010F07D1013015F4807F02BFC7
:10031000013015F4C03F0130F0BC0138704700BF18
:1003200053B94AB9002908BF00281CBF4FF0FF315C
:100330004FF0FF3000F074B9ADF1080C6DE904CE58
:1003400000F006F8DDF804E0DDE9022304B07047B0
:100350002DE9F047089D04468E46002B4DD18A4278
:10036000944669D9B2FA82F252B101FA02F3C2F1AB
:10037000200120FA01F10CFA02FC41EA030E94403C
:100380004FEA1C48210CBEFBF8F61FFA8CF708FB5D
:1003900016E341EA034306FB07F199420AD91CEB35
:1003A000030306F1FF3080F01F81994240F21C8167
:1003B000023E63445B1AA4B2B3FBF8F008FB1033AF
:1003C00044EA034400FB07F7A7420AD91CEB0404E4
:1003D00000F1FF3380F00A81A74240F207816444B4
:1003E000023840EA0640E41B00261DB1D440002339
:1003F000C5E900433146BDE8F0878B4209D9002D9D
:1004000000F0EF800026C5E9000130463146BDE826
:10041000F087B3FA83F6002E4AD18B4202D3824290
:1004200000F2F980841A61EB030301209E46002D3F
:10043000E0D0C5E9004EDDE702B9FFDEB2FA82F294
:10044000002A40F09280A1EB0C014FEA1C471FFAF2
:100450008CFE0126200CB1FBF7F307FB131140EAD9
:1004600001410EFB03F0884208D91CEB010103F1A6
:10047000FF3802D2884200F2CB804346091AA4B268
:10048000B1FBF7F007FB101144EA01440EFB00FE3C
:10049000A64508D91CEB040400F1FF3102D2A645A1
:1004A00000F2BB800846A4EB0E0440EA03409CE740
:1004B000C6F12007B34022FA07FC4CEA030C20FAED
:1004C00007F401FA06F31C43F9404FEA1C4900FA0D
:1004D00006F3B1FBF9F8200C1FFA8CFE09FB18118A
:1004E00040EA014108FB0EF0884202FA06F20BD9FD
:1004F0001CEB010108F1FF3A80F08880884240F24D
:100500008580A8F102086144091AA4B2B1FBF9F090
:1005100009FB101144EA014100FB0EFE8E4508D98B
:100520001CEB010100F1FF346CD28E456AD9023810
:10053000614440EA0840A0FB0294A1EB0E01A142F5
:10054000C846A64656D353D05DB1B3EB080261EB63
:100550000E0101FA07F722FA06F3F1401F43C5E93D
:10056000007100263146BDE8F087C2F12003D84073
:100570000CFA02FC21FA03F3914001434FEA1C47B5
:100580001FFA8CFEB3FBF7F007FB10360B0C43EAA7
:10059000064300FB0EF69E4204FA02F408D91CEB57
:1005A000030300F1FF382FD29E422DD90238634455
:1005B0009B1B89B2B3FBF7F607FB163341EA0341F5
:1005C00006FB0EF38B4208D91CEB010106F1FF3844
:1005D00016D28B4214D9023E6144C91A46EA00463B
:1005E00038E72E46284605E70646E3E61846F8E6CD
:1005F0004B45A9D2B9EB020864EB0C0E0138A3E716
:100600004646EAE7204694E74046D1E7D0467BE7F6
:10061000023B614432E7304609E76444023842E76E
:10062000704700BF00B59BB0074B1B78074A642199
:1006300001A805F083FFC1B201A800F091FAFA20E9
:1006400004F0B6FAF0E700BF88010020586E0008F9
:1006500008B505E0134600221A70FA2004F0A8FA43
:10066000034A13780133DBB213700A2BF2D8F4E794
:100670008801002008B50268034B9A4200D008BDEB
:1006800002F020FDFBE700BF0000014072B6FEE76C
:1006900000B595B03022002108A805F047FF0023DF
:1006A000039304930593069307930193214A116CD6
:1006B00041F080511164126C02F080520192019A53
:1006C00002931D4A136823F4404343F4004313602C
:1006D000136803F440430293029B012308934FF4F1
:1006E0008033099302230E934FF480030F93192351
:1006F00010934FF4A87311930423129307231393B9
:1007000008A802F055F880B90F2303930221049141
:10071000002305934FF480520692079303A802F03A
:1007200095FA20B915B05DF804FBFFF7AFFFFFF7AE
:10073000ADFF00BF003802400070004010B582B02D
:1007400002F0A6FCFFF7A4FF00F04EF800F01CF941
:1007500003F0C0FE642002F0C7FC00241A4B1C709A
:1007600004F07CFC194805F06BFE04F0E1FD184B29
:100770000193022300932346C8221649164804F029
:1007800077F8012808D04FF0500383F31188BFF3A6
:100790006F8FBFF34F8FFEE7104B0193022300933F
:1007A0000023C8220E490F4804F062F8012808D03F
:1007B0004FF0500383F31188BFF36F8FBFF34F8F58
:1007C000FEE704F087F8FEE78801002060E31600EA
:1007D0008C0100206C6E000851060008900100207A
:1007E000746E00082506000870B58AB000240594D0
:1007F00006940794089409940194214B1A6B42F0D3
:1008000004021A631A6B02F004020192019A029424
:100810001A6B42F080021A631A6B02F08002029295
:10082000029A03941A6B42F001021A631A6B02F0E7
:1008300001020392039A04941A6B42F002021A63B3
:100840001B6B03F002030493049B0E4E22464FF4ED
:100850000051304602F0BEFB4FF4005305930125D2
:1008600006950794089405A9304602F0D3FA059539
:100870000694079405A9044802F0CCFA0AB070BDAA
:10088000003802400008024000000240FEE7FEE798
:10089000FEE7FEE7FEE7704708B5024802F07AFC83
:1008A00008BD00BF9401002008B5024800F01EFEFC
:1008B00008BD00BFB80E002082B0002100910B4B94
:1008C0005A6C42F480425A645A6C02F4804200929C
:1008D000009A01911A6C42F080521A641B6C03F06A
:1008E00080530193019B02B0704700BF0038024063
:1008F00030B589B00546002401941E4B5A6C42F075
:1009000001025A645B6C03F001030193019B02A98D
:1009100003A802F061FA02F04FFA03461648A0FB62
:1009200003239B0C013B1548154A026040F2E73255
:10093000C260436004618460846102F037FD044654
:1009400010B1204609B030BD0C4802F0E3FB04466C
:100950000028F6D1192002F08DFB0F2D01D90124BA
:10096000EFE700222946192002F04CFB054B1D60E1
:10097000E7E700BF0038024083DE1B4394010020FC
:10098000000001406800002008B500220F4910480F
:1009900002F044FD70B90F490D4802F056FD60B9F0
:1009A0000D490B4803F038FD50B9094802F067FDC6
:1009B00048B908BDFFF76AFEEDE7FFF767FEEFE70E
:1009C000FFF764FEF1E7FFF761FEF2E700000020A9
:1009D000DC010020700000205000002012230B805A
:1009E000004870471C00002004230B80004870471B
:1009F00030000020002393421ED200B510E00CF11D
:100A0000370C01F813C000014FEA430C0CF1010C44
:100A10004FF0000E01F80CE00133DBB2934209D233
:100A20004FEA107CB0F1204FE9D20CF1300C01F804
:100A300013C0E8E75DF804FB7047000038B50B4BC6
:100A4000D3F8100AD3F8144AD3F8183AC01800D1D2
:100A500038BD074D0822A91CFFF7CCFF042205F181
:100A600012012046FFF7C6FFF2E700BF0070FF1F2C
:100A70003400002008B51A230B80FFF7DFFF014880
:100A800008BD00BF3400002008B50A4628B9054952
:100A9000054803F040FA034808BD0249024803F044
:100AA0003AFAF8E7B80400207C6E000810B50A4650
:100AB000034C2146034803F02EFA204610BD00BF28
:100AC000B8040020946E000808B50A4628B9054904
:100AD000054803F020FA034808BD0249024803F024
:100AE0001AFAF8E7B8040020A86E000808B50A460C
:100AF00028B90549054803F00EFA034808BD024924
:100B0000024803F008FAF8E7B8040020B46E0008C1
:100B100000207047002070470020704710B5014644
:100B2000044C204603F091FC204603F0B7FC002063
:100B300010BD00BFDC01002010B5064C00220649A4
:100B4000204603F074FC0549204603F07EFC00209B
:100B500010BD00BFDC010020B80A0020B80600204C
:100B6000094BD3F8BC32D3F814320BB101207047D3
:100B700010B5054C0A460146204603F058FC2046B5
:100B800003F06FFC10BD00BFDC01002030B589B060
:100B90000023039304930593069307930368B3F12B
:100BA000A04F01D009B030BD00250195164C236B34
:100BB00043F001032363236B03F001030193019BC3
:100BC0004FF4C053039302230493032306930A2391
:100BD000079303A90D4802F01DF9636B43F08003EE
:100BE00063630295636C43F480436364636C03F452
:100BF00080430293029B2A460621432002F002FA18
:100C0000432002F037FACDE70038024000000240EE
:100C100008B500F2C441D0F8080502F046FC08BD52
:100C200008B501EBC10300EB8303D3F88C22D0F8A5
:100C3000080502F007FD08BD08B501EBC10300EB94
:100C40008303DA6CD0F8080502F05FFD08BD08B533
:100C5000D0F8080502F0A1FC08BD10B50446C36831
:100C6000022B09D10121D4F8080502F07CFCD4F84C
:100C7000080502F046FC10BDFFF708FDF2E7000092
:100C800010B50446D0F8080502F070FC2268D2F8CE
:100C9000003E43F00103C2F8003E236A23B1034A39
:100CA000136943F00603136110BD00BF00ED00E0BF
:100CB00008B5D0F8080502F063FC08BD08B5D0F807
:100CC000080502F092FC08BD08B5D0F8080502F04E
:100CD00075FC08BD08B5D0F8080502F09DFC08BDFC
:100CE00008B5D0F8080502F099FC08BD02780AB1F1
:100CF0000020704710B503461548C0F80835C3F802
:100D0000C8024FF0A0430360042343600222C26084
:100D1000002303618261C36103624362C3620363B0
:100D200000F0F0F880B90A4C8021204600F0E6FE81
:100D300040220021204600F0BBFE802201212046F7
:100D400000F0B6FE002010BDFFF7A0FCEBE700BFEF
:100D5000B80E0020D0F8C83211F0800F08D101F091
:100D60007F0101EBC10103EB810191F87E02704725
:100D700001F07F0101EBC10103EB810191F83E001D
:100D8000704708B5D0F8C80200F0DFFA08BD0000CF
:100D900000487047C41300207047032805D8DFE8D7
:100DA00000F005040205012070470320704708B5D4
:100DB000D0F8C80200F03DF9FFF7EFFF08BD08B515
:100DC00094461A466346D0F8C80200F011FAFFF7BD
:100DD000E4FF08BD08B5D0F8C80200F04EFAFFF7EE
:100DE000DCFF08BD08B5D0F8C80200F0E6FAFFF74E
:100DF000D4FF08BD08B5D0F8C80200F022FBFFF709
:100E0000CCFF08BD08B5D0F8C80200F0DDF9FFF747
:100E1000C4FF08BD08B5D0F8C80200F09FFAFFF77C
:100E2000BCFF08BD08B5D0F8C80200F05FFAFFF7B4
:100E3000B4FF08BD2DE9F04383B0D0F8008001EB8A
:100E4000C10300EB8303DA6D5B6D9A4254D8074609
:100E50000C469B1A01EBC10200EB8202926C9A4293
:100E600000D31A4602F103094FEA990915E006F189
:100E700003094FEA990904EBC40507EB8505E96C02
:100E80003B7C0093B3B2E2B2404601F008FAEB6C4F
:100E90003344EB64EB6D3344EB6508EB441303F52B
:100EA00010639B699BB24B4512D304EBC40207EB62
:100EB0008202D16D536D99420AD24BB15B1A04EB99
:100EC000C40207EB8202966C9E42D0D31E46CEE748
:100ED00004EBC40007EB80077A6DFB6D9A420FD8D4
:100EE00004F00F040123A340D8F8344824EA030493
:100EF000C8F83448002000E0012003B0BDE8F083CA
:100F00000020FAE770B58AB0002800F0908005460E
:100F1000046890F8BD343BB3032385F8BD34E36B1C
:100F200013F4807F01D100232B61286800F0D2FEEA
:100F30002C4654F8106BEC460FCCACE80F000FCCED
:100F4000ACE80F0094E803008CE803002B1D0ECBE7
:100F5000304600F001FE044658B1022385F8BD3446
:100F6000012420460AB070BD80F8BC34FFF70EFEA5
:100F7000D2E70021286801F0A9FB234616E003EB25
:100F8000C30205EB8202012182F83D1082F83C3059
:100F9000A2F84430002182F840109164D16403EB40
:100FA000C30205EB820251650133DBB269688B42F3
:100FB000E5D316E004EBC40305EB8303002283F8BA
:100FC0007D2283F87C4283F88022C3F88822C3F80C
:100FD0008C2204EBC40305EB8303C3F89422013491
:100FE000E4B2A142E6D82C4654F8106BEC460FCC84
:100FF000ACE80F000FCCACE80F0094E803008CE8DD
:1010000003002B1D0ECB304600F0C0FE044620B17D
:10101000022385F8BD340124A3E7002385F8383086
:10102000012385F8BD34286801F00DFB99E7012400
:1010300097E7026890F8BC34012B19D010B504462C
:10104000012380F8BC34836A012B09D0206800F0AA
:101050003BFE206801F0E9FA002084F8BC0410BDD2
:101060008369012BF2D0936B43F480339363EDE7F4
:101070000220704770B504460D460068066C00EB10
:10108000411303F530639A682169012911D0384969
:101090008E4256D03DB905EBC50304EB8303D3F86C
:1010A0009432002B5ED0E9B22046FFF7B9FD002054
:1010B00070BD12F0080F09D02E498E42F7D912F4F4
:1010C000004FF4D04FF400429A60F0E712F0200F86
:1010D00002D020229A60EAE712F0280FE7D12549D2
:1010E0008E4206D912F4004F03D04FF400429A60AA
:1010F000DDE705EBC50204EB8202D2F898121B690A
:10110000C3F31203CB1AC2F89C327DB905EBC502BA
:1011100004EB8202D2F894226AB105EBC50204EB1B
:101120008202D2F88C120B44C2F88C32E9B220460B
:10113000FFF776FDBBE704F2C442012101F008FB92
:10114000F4E712F4004F03D04FF400429A60AEE788
:1011500012F0200F01D020229A60E9B22046FFF75A
:101160005FFDA4E704F2C442002101F0F1FA9AE71E
:101170000A31544F0A30544F38B5044603681D6C89
:1011800003EB4113D3F8081B0E4A954207D903F528
:10119000306311F4004F02D04FF400429A602046B1
:1011A000FFF736FD074B9D4202D92369012B01D081
:1011B000002038BD04F2C4420121206801F0C8FAC1
:1011C000F6E700BF0A30544F90F8BC34012B0DD025
:1011D00010B50446012380F8BC3480F8381000684C
:1011E00001F013FA002084F8BC0410BD02207047FF
:1011F00038B505468C4611F0800F29D101F00F0E4D
:101200000EEBCE04A40004F51E740444211D0EEB65
:10121000CE0E00EB8E0E00208EF87D020CF00F0C2F
:1012200081F800C0CA600B714A780AB1A1F808C001
:10123000022B1DD095F8BC34012B1CD0012385F85E
:10124000BC34286800F07BFE002085F8BC0438BD63
:1012500001F00F0000EBC00189003831294404314E
:1012600000EBC00005EB8000012480F83D40D5E78D
:1012700000234B71DEE70220E9E710B504460A4679
:1012800011F0800F20D101F00F0000EBC0039B0094
:1012900003F51E732344191D00EBC00004EB80000E
:1012A000002380F87D3202F00F020A7094F8BC34FB
:1012B000012B19D0012384F8BC34206800F08EFE85
:1012C000002084F8BC0410BD01F00F0000EBC00347
:1012D0009B0038332344191D00EBC00004EB800051
:1012E000012380F83D30DEE70220ECE710B501F085
:1012F0000F0404EBC401890001F51E71014404319F
:1013000004EBC40C00EB8C0CCCF88C22CCF894329F
:101310000023CCF89C328CF87D328CF87C42036937
:10132000012B06D064B9DAB2006800F0C7FE0020D5
:1013300010BD04EBC40C00EB8C0CCCF89022F1E750
:10134000DAB2006800F0C2FFF1E701F00F0101EB33
:10135000C10100EB8101D1F89C02704710B501F08A
:101360000F0404EBC401890038310144043104EB5B
:10137000C40C00EB8C0CCCF84C20CCF8543000237F
:10138000CCF85C3001238CF83D308CF83C4003698C
:10139000012B06D064B9DAB2006800F08FFE00209D
:1013A00010BD04EBC40C00EB8C0CCCF85020F1E722
:1013B000DAB2006800F08AFFF1E738B501F00F05F6
:1013C0004268954239D804460B4611F0800F1FD170
:1013D00001EBC101890001F51E710144043103EBE9
:1013E000C30300EB8303002283F87D2201238B706B
:1013F0000D7094F8BC34012B21D0012384F8BC3447
:10140000206801F0A7F88DB1002084F8BC0438BD35
:1014100005EBC501890038310144043105EBC503F2
:1014200000EB8303012283F83D20DFE704F2C4428E
:10143000217C206801F08CF9E6E70120E7E7022033
:10144000E5E701F00F034268934231D810B5044636
:1014500011F0800F1ED103EBC301890001F51E714D
:101460000144043103EBC30200EB8202002082F846
:101470007D0200228A700B7094F8BC34012B19D0C5
:10148000012384F8BC34206801F091F8002084F82E
:10149000BC0410BD03EBC3018900383101440431A1
:1014A00003EBC30200EB8202012082F83D00E0E77B
:1014B000012070470220ECE708B511F0800F0CD135
:1014C00001F00F0101EBC101890001F51E7101441A
:1014D0000431006800F084FE08BD01F00F0101EB4B
:1014E000C1018900383101440431F2E72DE9F04FA0
:1014F00083B004460568284601F0E4F810B103B053
:10150000BDE8F08F0646206801F0ABF80028F6D061
:1015100005F50067BB68C3F30D23C4F8FC342068ED
:1015200001F09FF810F0020F04D02268536903F015
:1015300002035361206801F094F810F0100F13D0EB
:101540002268936923F010039361D5F8208008F096
:101550000F09C8F34343022B4BD0062B6FD02268F0
:10156000936943F010039361206801F07AF810F456
:10157000002F76D1206801F074F810F4802F40F02D
:10158000E080206801F06DF80028C0F263812068D7
:1015900001F067F810F4006F09D0BB6813F0010F79
:1015A00040F070812268536903F40063536120683E
:1015B00001F057F810F4805F40F06881206801F076
:1015C00050F810F4005F40F0B581206801F049F850
:1015D00010F0080F40F0C681206801F042F810F0CA
:1015E000800F00F0D981AB6923F08003AB61012645
:1015F000C2E147F6F07318EA030FB0D04FEA181BA8
:101600004FEAC903019309EBC90A04EB8A0AC8F33C
:101610000A12DAF88C12284600F072FFCBF30A0B9C
:10162000DAF88C325B44CAF88C32019B4B4404EBF1
:101630008303D3F89C325B44CAF89C328FE70822BC
:1016400004F2C441284600F05BFFC8F30A1809EB16
:10165000C90204EB8202D2F89C324344C2F89C32A5
:101660007DE7206801F001F88046B14635E005EBE2
:1016700049130122C3F8082B49462046FFF7FAFC1C
:101680003CE005EB49130822C3F8082B49462046E5
:10169000FFF772FD35E009EBC90304EB830393F810
:1016A0007F32012B41D005EB49130222C3F8082BEE
:1016B0001AF0200F04D005EB49132022C3F8082BA1
:1016C0001AF4005F05D005EB49134FF40052C3F83C
:1016D000082B09F101094FEA5808B8F1000F3FF44F
:1016E00049AF18F0010FF4D05FFA89FB5946206822
:1016F00000F0CBFF824610F0010FB8D11AF0080FAE
:10170000BFD11AF0100F04D005EB49131022C3F813
:10171000082B1AF0020FCBD06B6913F0800FBAD0F0
:101720007B6843F480637B60B5E709EBC90304EB96
:101730008303002283F87F2259462046FFF7BEFA32
:10174000B1E7206800F099FF8046B14625E0594690
:101750002046FFF771FA1AF0080F04D005EB491381
:101760000822C3F808291AF0100F04D005EB49131A
:101770001022C3F808291AF0400F04D005EB4913D2
:101780004022C3F808291AF0020F40D11AF0800F46
:101790005BD109F101094FEA5808B8F1000F3FF495
:1017A000F0AE18F0010FF4D05FFA89FB59462068BB
:1017B00000F074FF824610F0010FCCD009F00F0347
:1017C000012101FA03F27B6B23EA02037B6305EB41
:1017D0004913C3F8081923698B42B8D109EBC9032F
:1017E00004EB8303996CDA6C0A44DA64B9F1000FF4
:1017F000ADD109EBC90304EB83035B6D002BA6D1CC
:1018000004F2C4420121206800F0A2FF9FE749468C
:10181000284600F065FA09EBC90304EB830393F84B
:101820003F30012B05D005EB49130222C3F80829EC
:10183000ACE709EBC90304EB8303002283F83F20E4
:1018400059462046FFF740FAEDE749462046FFF7A4
:10185000F1FA9EE77B6823F001037B6094F8F4348F
:10186000012B08D02046FFF723FA2268536903F0C2
:10187000004353618BE6002184F8F414204600F005
:1018800041F9F2E72046FFF7FBF98BE67B6823F08E
:1018900001037B601021206800F022FA1AE005EBBA
:1018A00046134FF67F31C3F80819D3F8002922F404
:1018B0000012C3F80029C3F8081BD3F8002B22F448
:1018C0000012C3F8002BD3F8002B42F00062C3F8DB
:1018D000002B01366368B342E1D8FB6943F0011382
:1018E000FB61236BDBB1D7F8843043F00B03C7F8FF
:1018F00084307B6C43F00B037B64D5F8003823F411
:10190000FE63C5F8003804F2C442217C206800F070
:101910001FFF2268536903F4805353614EE67B69CD
:1019200043F4005343F02B037B613B6943F00B030B
:101930003B61E2E7206800F0FAFE206800F0EEFA72
:10194000E060266801F032FA0146227B304600F062
:1019500049F92046FFF781F92268536903F40053DF
:10196000536132E62046FFF772F92268536903F0AB
:101970000803536130E601366368B3420CD906EBC5
:10198000C60304EB830393F87F32012BF3D1F1B24A
:101990002046FFF791FDEEE7206800F062FE10F4AC
:1019A000801F27D1206800F05CFE10F4001F5BD080
:1019B000012328E001366368B3421DD905EB4613C5
:1019C000D3F8002906EBC60304EB830393F84030F9
:1019D000012BEFD1002AEDDA06EBC60304EB8303FB
:1019E000012283F83F2066F07F01C9B22046FFF74D
:1019F00063FDDFE70126DEE72268536903F4801305
:101A00005361CFE7013362689A4228D905EB43124C
:101A1000D2F8001B03EBC30204EB820292F880228F
:101A2000012AEFD10029EDDA01F48031D4F8FC2449
:101A300002F001029142E5D103EBC30204EB820202
:101A4000012182F87F12AA6942F08002AA616A69C4
:101A500012F0800FD6D17B6843F400737B6022685C
:101A6000536903F400135361206800F0FAFD10F08D
:101A7000804F10D1206800F0F4FD10F0040F3FF407
:101A80003EAD23685D6815F0040F0DD122685368E0
:101A90002B43536033E52046FFF71CF92268536956
:101AA00003F080435361E5E72046FFF719F9EDE7BE
:101AB00010B40468606A31B940EA0240A0620020B4
:101AC0005DF8044B70478C46A36A00EB134000237B
:101AD00008E003F1400104EB8101496800EB11408B
:101AE0000133DBB20CF1FF318B42F2D340EA02400A
:101AF0000CF13F0104EB81014860E0E703685962A3
:101B0000002070477047000082B000230193019BC2
:101B100001330193019A0F4B9A4215D80369002BA8
:101B2000F5DA00230193036943F001030361019B8C
:101B300001330193019A074B9A4208D8036913F0C5
:101B4000010FF4D1002000E0032002B07047032011
:101B5000FBE700BF400D030084B010B5044603A8A6
:101B600080E80E00089B012B1FD1A36B23F4803368
:101B7000A363E36823F4840323F04003E360E36892
:101B800023F44013E3600F9B012B09D02046FFF79D
:101B9000BBFF069B012B1BD0BDE8104004B0704773
:101BA000E36843F48013E360F0E7E36843F0400345
:101BB000E3602046FFF7A8FF0C9B23B9A36B43F417
:101BC0008033A363E5E7A36B23F48033A363E0E7EB
:101BD000A36843F00603A360A36843F02003A36057
:101BE000DAE70000022A0AD00921C26822F4705202
:101BF000C260C36843EA8123C36000207047234B5F
:101C00000B44234A93422FD9224B0B44224A93423E
:101C10002CD9A1F57403A3F51053204A934227D978
:101C2000A1F18373A3F5E7431D4A934222D31D4BD1
:101C30000B441D4A93421FD91C4B0B441C4A934230
:101C40001CD31C4B0B441C4A934219D3A1F1B7730C
:101C5000A3F55853194A934214D3194B0B44194A0C
:101C6000934211D20721C0E70F21BEE70E21BCE746
:101C70000D21BAE70C21B8E70B21B6E70A21B4E73A
:101C80000921B2E70821B0E70621AEE7405327FF5C
:101C9000FF340C00401E1BFF3F420F007F4F12001D
:101CA00020D6130060B6E5FE5FE3160000D3CEFE3B
:101CB00040771B00C05BB3FEC09121002075380047
:101CC000E05459FEE09C4100836843F001038360C7
:101CD00000207047836823F0010383600020704771
:101CE00082B000230193019B01330193019A0F4BB2
:101CF0009A4215D80369002BF5DA00230193890174
:101D000041F020010161019B01330193019A074BCE
:101D10009A4208D8036913F0200FF4D1002000E0A4
:101D2000032002B070470320FBE700BF400D030013
:101D300082B000230193019B01330193019A0E4B62
:101D40009A4213D80369002BF5DA0023019310237C
:101D50000361019B01330193019A074B9A4208D812
:101D6000036913F0100FF4D1002000E0032002B04B
:101D700070470320FBE700BF400D0300D0F8003898
:101D80001943C0F8001800207047000084B02DE906
:101D9000F041044607A880E80E00002306E003F1A6
:101DA000400204EB82020021516001330E2BF6D970
:101DB000119F27BBD4F8043843F00203C4F8043859
:101DC000A36B43F40013A363A36B23F40023A36367
:101DD000A36B23F48023A3630023C4F8003E04F51F
:101DE0000065D4F80038C4F800380C9B012B14D1DE
:101DF000099B6BB900212046FFF7C0FF11E0A36BE0
:101E000023F40013A363A36B43F40023A363E3E76A
:101E100001212046FFF7B2FF03E003212046FFF730
:101E2000ADFF10212046FFF75BFF804608B14FF061
:101E300001082046FFF77CFF08B14FF0010800239E
:101E40002B616B61EB610AE0C3B94FF00060C2F82F
:101E5000000900220A614FF67F328A600133079938
:101E6000994210D904EB431202F51061D2F800092F
:101E70000028E9DB0020C2F80009EAE74FF09040B3
:101E8000C2F80009E5E700230AE0C3B14FF0904C27
:101E9000C2F800CB002202614FF67F32826001332C
:101EA000994211D904EB431202F53060D2F8006B6D
:101EB000002EEADB4FF0000CC2F800CBEAE74FF04F
:101EC000006CC2F800CBE5E72B6923F480732B612B
:101ED0000023A3616FF0804363610A9B1BB9A36970
:101EE00043F01003A361A2690B4B1343A3610D9B45
:101EF0001BB1A36943F00803A361012F04D040463E
:101F0000BDE8F04104B07047A36943F0804343F05B
:101F10000403A361F3E700BF00383C80D0F8083821
:101F200013F0060307D0022B07D0062B01D00F2099
:101F3000704702207047002070470220704710B59C
:101F400091F800C04B78012B23D000F5006ED0F83B
:101F50001C380CF00F040122A24043EA0243C0F8EF
:101F60001C3800EB4C10D0F8003B13F4004F0ED19E
:101F7000D0F8003BCA68C2F30A02097942EA8142FA
:101F8000134343F0805343F40043C0F8003B002068
:101F900010BDD0F81C280CF00F0E03FA0EF39BB204
:101FA0001343C0F81C3800EB4C10D0F8003913F480
:101FB000004FECD1D0F80039CA68C2F30A0209799F
:101FC00042EA814242EA8C5C43EA0C0343F08053CC
:101FD00043F40043C0F80039D9E7000030B40B786F
:101FE0004A78012A26D000EB4313D3F8002B002AAD
:101FF00052DBD0F83C480A7802F00F024FF0010C97
:102000000CFA02F224EA0242C0F83C28D0F81C285C
:10201000097801F00F010CFA01FC22EA0C42C0F829
:102020001C28D3F8001B234A0A40C3F8002B0020C9
:1020300030BC704700EB4313D3F80029002A1EDBA5
:10204000D0F83C580A7802F00F02012404FA02F298
:1020500092B225EA0202C0F83C28D0F81C28097880
:1020600001F00F018C40A4B222EA0404C0F81C481D
:10207000D3F80019104A0A40C3F80029D7E7D3F86B
:10208000002942F00062C3F80029D3F8002942F089
:102090008042C3F80029D3E7D3F8002B42F0006256
:1020A000C3F8002BD3F8002B42F08042C3F8002B7A
:1020B0009FE700BF0078F3EF007833EC70B40B7843
:1020C0004C78012C29D000EB431000F530631C69DB
:1020D000E40CE4041C611C6924F0FF5424F4C014D3
:1020E0001C618C690CB1CC688C61CC68CC611C69BA
:1020F00044F400241C611C69CD69C5F3120C44EA48
:102100000C041C61012A66D0D0F8003B43F0044364
:10211000C0F8003B002070BC70478C696CBB00EBC2
:102120004314D4F8105925F0FF5525F4C015C4F810
:102130001059D4F8105945F40025C4F81059D4F8B2
:102140001059ED0CED04C4F81059012A34D000EBFD
:102150004313D3F8002942F00442C3F800298B69E5
:10216000002BD7D0D0F834380A7802F00F010122C2
:102170008A401343C0F83438CCE700EB431404F52D
:1021800010642569ED0CED042561256925F0FF55E6
:1021900025F4C0152561CD688E69AE4200D98D61E8
:1021A000256945F40025256125698E69C6F3120C61
:1021B00045EA0C052561C8E74A691AB100EB4311ED
:1021C000C1F8142900EB4310D0F8002942F0044272
:1021D000C0F800299EE70A69002A95D05A6193E762
:1021E00010B483B0024600230193487801280BD035
:1021F0000B7802EB4313D3F8000B00282DDB0020F3
:1022000003B05DF8044B70470B7802EB4313D3F82F
:102210000049002C01DB0020F2E7D3F8004944F02C
:102220000064C3F800490B7802EB4313D3F800496C
:1022300044F08044C3F80049019B01330193019CA1
:1022400042F210739C42DBD80B7802EB4313D3F8B5
:102250000039002BF0DB0020D2E7D3F8000B40F070
:102260000060C3F8000B0B7802EB4313D3F8000BAC
:1022700040F08040C3F8000B019B013301930198AB
:1022800042F21073984208D80B7802EB4313D3F84C
:10229000003B002BF0DB0020B2E70120B0E710B5D7
:1022A0009DF8084084B903334FEA930E4FF0000CB9
:1022B00008E000EB023303F5805351F8044B1C6037
:1022C0000CF1010CF445F4D3002010BDF0B583B03F
:1022D0000B784C78012C33D000EB431303F5306CB2
:1022E000DCF81040E40CE404CCF81040DCF81040BA
:1022F00024F0FF5424F4C014CCF810408C69002C56
:1023000040F0C780DCF81040CD68C5F312052C43BF
:10231000CCF81040DCF8104044F40024CCF8104015
:10232000012A00F0D0800A79012A00F0D380D3F886
:10233000002B42F00442C3F8002B002003B0F0BD94
:102340008C6984BB00EB4314D4F8105925F0FF5579
:1023500025F4C015C4F81059D4F8105945F40025D7
:10236000C4F81059D4F81059ED0CED04C4F8105904
:10237000012A4CD000EB4313D3F8004944F0044445
:10238000C3F800490C79012C6AD08B69002BD4D09A
:10239000D0F834380A7802F00F0101228A40134342
:1023A000C0F83438C9E700EB4314D4F81059ED0CE9
:1023B000ED04C4F81059D4F8105925F0FF5525F450
:1023C000C015C4F81059D4F810698D69CF683D4420
:1023D000013DB5FBF7F5494F07EAC5453543C4F85C
:1023E0001059D4F810598E69C6F312063543C4F853
:1023F000105904F510640D79012DB9D1256925F026
:10240000C0452561256945F000552561B0E74A6959
:102410001AB100EB4314C4F814290A79012A08D030
:1024200000EB4313D3F8002942F00442C3F800291B
:1024300083E7D0F8082812F4807F08D100EB43111D
:10244000D1F8002942F00052C1F80029E8E700EB7A
:102450004311D1F8002942F08052C1F80029DFE78A
:10246000D0F8084814F4807F0CD1D3F8004944F028
:102470000054C3F8004900920B8B0A780969FFF7F2
:102480000EFF5AE7D3F8004944F08054C3F80049DE
:10249000F1E7CD682C44013CB4FBF5F4A4B204FB95
:1024A00005F5CD61DCF81050144E06EAC4442C4307
:1024B000CCF81040DCF81040CD69C5F312052C4370
:1024C000CCF810402CE70A69002A3FF42CAFCCF876
:1024D000142028E7D0F8082812F4807F06D1D3F81A
:1024E000002B42F00052C3F8002B20E7D3F8002B5A
:1024F00042F08052C3F8002B19E700BF0000F81F1C
:1025000000B583B0844608464FEA920E02F00302FB
:10251000002305E00CF58051096840F8041B0133E5
:102520007345F7D39AB10CF5805CDCF80030019369
:102530004FF0000C5FFA8CF3D900019BCB4000F800
:10254000013B0CF1010C013A92B2002AF2D103B026
:102550005DF804FB0B784A78012A14D000EB431095
:10256000D0F8002B002A06DB2BB1D0F8003B23F07B
:102570008043C0F8003BD0F8003B43F40013C0F8A0
:10258000003B0020704700EB4310D0F80029002AE0
:1025900006DB2BB1D0F8003923F08043C0F80039B6
:1025A000D0F8003943F40013C0F80039E9E70B789C
:1025B0004A78012A0ED000EB4310D0F8003B23F4F8
:1025C0000013C0F8003B0B79023BDBB2012B15D99D
:1025D0000020704700EB4310D0F8003923F40013BB
:1025E000C0F800390B79023BDBB2012BF0D8D0F8F0
:1025F000003943F08053C0F80039E9E7D0F8003BD8
:1026000043F08053C0F8003BE2E7D0F8003823F4F1
:10261000FE63C0F80038D0F80038090101F4FE610B
:102620001943C0F8001800207047D0F8003E23F08E
:102630000303C0F8003ED0F8043823F00203C0F8CA
:10264000043800207047D0F8003E23F00303C0F8A0
:10265000003ED0F8043843F00203C0F804380020EC
:1026600070474269806910407047D0F8183800F50B
:102670000060C0691840000C7047D0F8183800F5A9
:102680000060C069184080B2704700EB4111D1F87A
:10269000082B00F5006040691040704710B4D0F876
:1026A0001048D0F8343801F00F02D340DB01DBB220
:1026B000234300EB411000F51060806818405DF87E
:1026C000044B7047406900F00100704738B505467B
:1026D000C36823F0C043C360012913D019BBC3688A
:1026E00043F08043C3600024012000F0FDFC01346E
:1026F0002846FFF7E7FF08B1312CF5D9322C14D06A
:10270000002038BDC36843F00053C360002401209B
:1027100000F0EAFC01342846FFF7D4FF0128EDD091
:10272000312CF4D9EAE70120EBE70120E9E7D0F802
:10273000003923F4FF6323F00703C0F80039D0F811
:10274000043843F48073C0F8043800207047000058
:1027500010B4046C154B9C4203D9D0F8003B002BFD
:1027600016DB0024C0F8104BD0F8104B44F40024C2
:10277000C0F8104BD0F8104B44F01804C0F8104BC0
:10278000D0F8104B44F0C044C0F8104B012903D0DE
:1027900000205DF8044B7047C0F8142BD0F8003BC4
:1027A00043F08023C0F8003BF2E700BF0A30544FEB
:1027B000002800F0E08170B582B00446036813F091
:1027C000010F3BD09F4B9B6803F00C03042B2CD0D4
:1027D0009C4B9B6803F00C03082B21D06368B3F576
:1027E000803F4FD0B3F5A02F52D0964B1A6822F4F9
:1027F00080321A601A6822F480221A606368002B03
:1028000050D000F06BFC05468E4B1B6813F4003F64
:1028100014D100F063FC401B6428F5D90320B1E11A
:10282000884B5B6813F4800FD8D0864B1B6813F479
:10283000003F03D06368002B00F09F81236813F0F2
:10284000020F54D07F4B9B6813F00C0F3ED07D4B92
:102850009B6803F00C03082B33D0E368002B68D08F
:10286000794B01221A6000F039FC0546754B1B6854
:1028700013F0020F54D100F031FC401B0228F5D9AF
:1028800003207FE16F4A136843F480331360B5E798
:102890006C4B1A6842F480221A601A6842F4803243
:1028A0001A60ABE700F01AFC0546664B1B6813F490
:1028B000003FC3D000F012FC401B6428F5D9032070
:1028C00060E1604B5B6813F4800FC6D15D4B1B6801
:1028D00013F0020F03D0E368012B40F05081594AF6
:1028E000136823F0F803216943EAC10313602368E6
:1028F00013F0080F42D063696BB3534B0122C3F846
:10290000802E00F0EBFB05464E4B5B6F13F0020F81
:1029100034D100F0E3FB401B0228F5D9032031E15C
:10292000484A136823F0F803216943EAC10313609E
:10293000DDE7454B00221A6000F0D0FB0546414B15
:102940001B6813F0020FD2D000F0C8FB401B022816
:10295000F5D9032016E13C4B0022C3F8802E00F08D
:10296000BDFB0546374B5B6F13F0020F06D000F03E
:10297000B5FB401B0228F5D9032003E1236813F0BF
:10298000040F77D02F4B1B6C13F0805F33D10023E3
:1029900001932C4B1A6C42F080521A641B6C03F0AA
:1029A00080530193019B0125284B1B6813F4807F02
:1029B00023D0A368012B34D0052B38D0214B1A6FBC
:1029C00022F001021A671A6F22F004021A67A36844
:1029D000002B3DD000F082FB06461A4B1B6F13F014
:1029E000020F46D100F07AFB801B41F288339842F7
:1029F000F3D90320C6E00025D6E7144A136843F450
:102A00008073136000F06AFB0646104B1B6813F4DA
:102A1000807FCED100F062FB801B0228F5D9032015
:102A2000B0E0084A136F43F001031367CFE7054B8B
:102A30001A6F42F004021A671A6F42F001021A6715
:102A4000C5E700BF00380240000047420070004068
:102A500000F044FB0646524B1B6F13F0020F08D0E8
:102A600000F03CFB801B41F288339842F3D90320ED
:102A700088E0EDB9A369002B00F08380484A926892
:102A800002F00C02082A51D0022B17D0454B00222D
:102A90001A6600F023FB0446414B1B6813F0007FCD
:102AA00042D000F01BFB001B0228F5D9032069E08F
:102AB0003B4A136C23F080531364DBE7394B00224D
:102AC0001A6600F00BFB0546354B1B6813F0007FC0
:102AD00006D000F003FB401B0228F5D9032051E08B
:102AE000E369226A1343626A43EA8213A26A5208C4
:102AF000013A43EA0243E26A43EA0263284A536026
:102B0000284B01221A6600F0E9FA0446244B1B68A0
:102B100013F0007F06D100F0E1FA001B0228F5D97E
:102B200003202FE000202DE000202BE0012B2BD0F4
:102B30001B4B5B6803F48001E269914226D103F0EC
:102B40003F02216A8A4223D1616A47F6C0721A4065
:102B5000B2EB811F1ED103F44031A26A5208013A40
:102B6000B1EB024F18D103F07063E26AB3EB026F6E
:102B700014D1002006E001207047012002E001206E
:102B800000E0002002B070BD0120FBE70120F9E762
:102B90000120F7E70120F5E70120F3E70120F1E745
:102BA000003802400000474208B5254B9B6803F0FF
:102BB0000C03042B3FD0082B3FD1214B5A6802F065
:102BC0003F025B6813F4800F12D01D4B5968C1F3AC
:102BD00088111C480023A1FB0001FDF7A1FB184B45
:102BE0005B68C3F3014301335B00B0FBF3F025E006
:102BF000134B5968C1F3881C4FEA4C11B1EB0C0020
:102C00006EEB0E0E4FEA8E1343EA90638101091AB0
:102C100063EB0E03DB0043EA5173C90011EB0C0CAC
:102C200043F10003990200234FEA8C2041EA9C51B2
:102C3000FDF776FBD3E7034800E0034808BD00BF7B
:102C40000038024040787D010024F400002800F0A4
:102C50009B8070B50D4604464F4B1B6803F007037D
:102C60008B4208D2CBB24C4A1370136803F00703AF
:102C70008B4240F08B80236813F0020F17D013F0C3
:102C8000040F04D0454A936843F4E05393602368EB
:102C900013F0080F04D0414A936843F460439360F3
:102CA0003E4A936823F0F003A1680B4393602368C6
:102CB00013F0010F32D06368012B21D09A1E012A34
:102CC00025D9364A126812F0020F61D033498A685A
:102CD00022F0030213438B6000F000FA06462F4BEC
:102CE0009B6803F00C036268B3EB820F16D000F010
:102CF000F5F9801B41F288339842F0D9032042E075
:102D0000264A126812F4003FE0D101203BE0234A3A
:102D1000126812F0007FD9D1012034E01E4B1B68ED
:102D200003F00703AB4207D9EAB21B4B1A701B68CA
:102D300003F00703AB422DD1236813F0040F06D034
:102D4000164A936823F4E053E1680B4393602368C9
:102D500013F0080F07D0114A936823F460432169E8
:102D600043EAC1039360FFF71FFF0C4B9B68C3F35B
:102D700003130B4AD35CD8400A4B18600A4B1868FF
:102D8000FDF7B6FD002070BD012070470120FAE775
:102D90000120F8E70120F6E7003C0240003802403D
:102DA000C46E00086C00002068000020014B186809
:102DB000704700BF6C00002008B5FFF7F7FF044B19
:102DC0009B68C3F34233034AD35CD84008BD00BFBD
:102DD00000380240D46E00080F2303600B4B9A6842
:102DE00002F0030242609A6802F0F00282609A6880
:102DF00002F4E052C2609B68DB0803F4E053036115
:102E0000034B1B6803F007030B6070470038024058
:102E1000003C024000230F2B00F2D28070B582B03C
:102E200060E085685E000324B44025EA0405CC68B0
:102E3000B4402C438460456825EA02054C68C4F31D
:102E400000129A402A4342605AE0DC08083450F8E5
:102E5000246003F0070295000F22AA4026EA020E22
:102E60000A69AA4042EA0E0240F824205CE00422EB
:102E700000E0002202FA0EF22A430234514D45F8D6
:102E80002420514A94686FEA0C0224EA0C054E682B
:102E900016F4801F01D04CEA04054B4CA560E46891
:102EA00002EA04054E6816F4001F01D04CEA04053E
:102EB000454CE560646802EA04054E6816F4003F7C
:102EC00001D04CEA0405404C6560246822404D68FE
:102ED00015F4803F01D04CEA04023B4C22600133E0
:102EE0000F2B6BD801229A400C6804EA020C32EADC
:102EF0000404F4D14C6804F00304013C012C90D983
:102F00004A6802F00302032A09D0C4685D00032264
:102F1000AA4024EA02048A68AA402243C2604A689E
:102F200002F00302022A90D004684FEA430E032203
:102F300002FA0EF224EA02044A6802F0030202FADC
:102F40000EF2224302604A6812F4403FC7D00022CA
:102F500001921E4A546C44F480445464526C02F44E
:102F600080420192019A9C08A51C164A52F82550ED
:102F700003F003024FEA820E0F2202FA0EF225EA54
:102F80000205134A90423FF474AF02F5806290420A
:102F90000ED002F5806290420CD002F58062904221
:102FA0000AD002F5806290423FF461AF072261E7E8
:102FB00001225FE702225DE703225BE702B070BDFA
:102FC000704700BF00380140003C0140003802401B
:102FD000000002400AB181617047090481617047B5
:102FE000074AD36823F4E0631B041B0C000200F4BF
:102FF000E060034343F0BF6343F40033D3607047A2
:1030000000ED00E000B5194BDB68C3F30223C3F108
:10301000070CBCF1040F28BF4FF0040C03F1040EA1
:10302000BEF1060F18D9033B4FF0FF3E0EFA0CFC21
:1030300021EA0C0199400EFA03F322EA0303194333
:1030400000280BDB0901C9B200F1604000F56140C6
:1030500080F800135DF804FB0023E5E700F00F00A3
:103060000901C9B2024B1954F4E700BF00ED00E0BA
:1030700014ED00E0002807DB00F01F0240090123E7
:103080009340024A42F82030704700BF00E100E060
:1030900008B50B4B1A6842F400721A601A6842F4C1
:1030A00080621A601A6842F480721A600320FFF787
:1030B00097FF0F20FDF71CFCFDF7FEFB002008BD6D
:1030C000003C0240034A1168034B1B780B44136019
:1030D000704700BFE415002064000020014B186811
:1030E000704700BFE415002038B50446FFF7F6FF2F
:1030F0000546B4F1FF3F02D0044B1B781C44FFF798
:10310000EDFF401BA042FAD338BD00BF6400002091
:103110007047000090F83D30DBB2012B2FD1022325
:1031200080F83D300268D36843F00103D360036840
:10313000154A934218D0B3F1804F15D0A2F57C42C6
:10314000934211D002F5806293420DD002F5806265
:10315000934209D002F59A32934205D01A6842F0A0
:1031600001021A60002070479A6802F00702062ADE
:1031700007D01A6842F001021A600020704701204F
:1031800070470020704700BF000001407047704743
:103190007047704710B5044603681A6912F0020FB1
:1031A00011D0DA6812F0020F0DD06FF002021A612E
:1031B0000123037703689B6913F0030F70D0FFF7B7
:1031C000E6FF0023237723681A6912F0040F12D058
:1031D000DA6812F0040F0ED06FF004021A610223B5
:1031E000237723689B6913F4407F5FD02046FFF765
:1031F000CEFF0023237723681A6912F0080F12D03C
:10320000DA6812F0080F0ED06FF008021A6104237A
:1032100023772368DB6913F0030F4ED02046FFF7B6
:10322000B6FF0023237723681A6912F0100F12D01B
:10323000DA6812F0100F0ED06FF010021A61082336
:1032400023772368DB6913F4407F3DD02046FFF7E6
:103250009EFF0023237723681A6912F0010F03D021
:10326000DA6812F0010F36D123681A6912F0800F64
:1032700003D0DA6812F0800F34D123681A6912F093
:10328000400F03D0DA6812F0400F32D123681A6978
:1032900012F0200F03D0DA6812F0200F30D110BDE9
:1032A000FFF774FF2046FFF773FF8AE72046FFF71A
:1032B0006DFF2046FFF76CFF9BE72046FFF766FF98
:1032C0002046FFF765FFACE72046FFF75FFF20468B
:1032D000FFF75EFFBDE76FF001021A612046FDF7C0
:1032E000C9F9C1E76FF080021A61204600F08BF83F
:1032F000C3E76FF040021A612046FFF74AFFC5E7B7
:103300006FF020021A61204600F07CF8C7E7000049
:103310000368254A90420ED0B0F1804F0BD0A2F541
:103320007C42904207D002F58062904203D002F5C1
:103330008062904203D123F070034A6813431A4A13
:1033400090421AD0B0F1804F17D0A2F57C42904243
:1033500013D002F5806290420FD002F58062904255
:103360000BD002F59A32904207D002F5806290426B
:1033700003D002F58062904203D123F44073CA68FF
:10338000134323F080034A69134303608B68C362CD
:103390000B688362044B984202D00123436170475B
:1033A0000B690363F9E700BF0000014040B310B5AB
:1033B000044690F83D30F3B1022384F83D302146B5
:1033C00051F8040BFFF7A4FF012384F8463084F87A
:1033D0003E3084F83F3084F8403084F8413084F83F
:1033E000423084F8433084F8443084F8453084F81F
:1033F0003D30002010BD80F83C30FFF789FEDBE750
:103400000120704770477047034AD2F8883043F470
:103410007003C2F88830704700ED00E098B108B53D
:1034200003460020C3F8B802C3F8C402C3F8D002B0
:1034300009B1C3F8B412012183F89C121A7018461E
:10344000FDF754FC08BD0320704710B582B000237F
:10345000ADF8063089B10446C0F8B812CB6A23B182
:103460000DF106009847C4F8D002D4F8D8320133E1
:10347000C4F8D832002002B010BD0320FBE708B525
:10348000FDF795FC08BD08B5D0F8B83213B11B683C
:10349000984708BD0020FCE708B5D0F8B8325B6853
:1034A000984700B908BD0320FCE738B5044600F290
:1034B000AA25284600F0C4F90123C4F89432B4F8D0
:1034C000B032C4F8983294F8AA1201F01F03012B0D
:1034D0000DD0022B10D02BB101F080012046FDF75A
:1034E00081FC03E02946204600F080FB38BD2946D8
:1034F000204600F0B6FBF9E72946204600F0F3FB32
:10350000F4E7F8B50446012380F89C320023C0F8A4
:1035100094324360C0F8A43280F8A032D0F8B832B8
:10352000DBB15B68DBB1002198470746C8B940238F
:10353000002211462046FDF742FC0126A4F86461F2
:103540004025C4F860512B46002280212046FDF71B
:1035500036FCA68425623846F8BD0027E7E7002739
:10356000E5E70327E3E701740020704790F89C32F9
:10357000DBB280F89D32042380F89C320020704733
:1035800090F89C32DBB2042B01D00020704790F8F9
:103590009D32DBB280F89C32F7E708B590F89C3298
:1035A000DBB2032B01D0002008BDD0F8B832002BCD
:1035B000F9D0DB69002BF6D09847F4E708B5D0F8CE
:1035C000D432AE3350F823205AB190F89C32DBB29B
:1035D000032B01D0002008BD136A23B198470020B7
:1035E000F9E70320F7E70020F5E708B5D0F8D43273
:1035F000AE3350F823205AB190F89C32DBB2032B43
:1036000001D0002008BD536A23B198470020F9E794
:103610000320F7E70020F5E70020704708B50123F5
:1036200080F89C32D0F8B83223B15B6801799847B2
:1036300010B908BD0020FCE70320FAE7002070471E
:103640000020704738B504460D46002943D1134683
:10365000D0F89422032A01D0084638BDD0F85C1176
:10366000D0F86021914212D890F8AA3203F01F03DB
:10367000012B17D0022B1CD0284694F89C32DBB2C9
:10368000032B1BD0204600F08FFC2846E5E7891A63
:10369000C0F85C118A4228BF0A46194600F07CFC3B
:1036A0002846DAE790F8AE12FFF7C8FF0028E9D104
:1036B000E3E790F8AE12FFF7C3FFF7E700F1AE03C0
:1036C00054F823301A69002ADCD0C4F8D4021B69EC
:1036D00020469847D6E701F07F01FFF7B1FF90B988
:1036E00094F89C32DBB2032BB7D100F1AE0354F84F
:1036F00023309A69002AB0D0C4F8D4029B692946C5
:1037000020469847A9E70020A7E738B504460D46AC
:1037100000294BD11346D0F89422022A07D094F8FE
:10372000A00218B1002384F8A032284638BDC2692F
:10373000016A8A420ED88A4218D094F89C32DBB2D1
:10374000032B27D080212046FDF74CFB204600F0BC
:1037500036FCE4E7521AC261194600F006FC002369
:103760001A4619462046FDF75DFBD8E78369994262
:10377000E3D8D0F898229342DFD20022114600F01D
:10378000F4FB0021C4F898120B460A462046FDF7C8
:1037900049FBC4E7D4F8B832DA68002AD2D0002254
:1037A000C4F8D422DB6820469847CBE741F080017B
:1037B000FFF746FF90B994F89C32DBB2032BB5D1EA
:1037C00000F1AE0354F823305A69002AAED0C4F891
:1037D000D4025B69294620469847A7E70020A5E761
:1037E00003780A8813440B80037818447047428892
:1037F00003789A4218D930B583B004460D46ADF827
:1038000006306288BDF806309A420AD90DF10601E9
:10381000FFF7E6FF4378052BF3D18378AB42F0D175
:1038200000E0002003B030BD0020704703460020B8
:1038300002E00130C0B201331A78002AF9D1704792
:103840000B7803704B7843708B78CA7843EA022375
:1038500043800B794A7943EA022383808B79CA79C2
:1038600043EA0223C380704710B504468021FDF768
:10387000B9FA00212046FDF7B5FA10BD30B583B086
:1038800004460D460023ADF806304A88130A013B72
:10389000062B00F2AB80DFE803F0041F33A9A98DEB
:1038A0009A00D0F8B4321B680DF10601007C9847ED
:1038B000EA88002A00F0A380BDF80630002B00F053
:1038C00099809A4228BF1A46ADF806200146204644
:1038D00000F03EFB03B030BD037C43B9D0F8B832F2
:1038E0009B6A0DF10600984702234370E0E7D0F889
:1038F000B832DB6A0DF10600984702234370D7E720
:10390000D2B2052A52D8DFE802F003101D2A37444C
:10391000D0F8B4325B6823B10DF10601007C984702
:10392000C6E72946FFF7A0FFD4E7D0F8B4329B687A
:1039300023B10DF10601007C9847B9E72946FFF74E
:1039400093FFC7E7D0F8B432DB6823B10DF106016D
:10395000007C9847ACE72946FFF786FFBAE7D0F826
:10396000B4321B6923B10DF10601007C98479FE733
:103970002946FFF779FFADE7D0F8B4325B6923B190
:103980000DF10601007C984792E72946FFF76CFF8E
:10399000A0E7D0F8B4329B6923B10DF10601007C99
:1039A000984785E72946FFF75FFF93E72946FFF72A
:1039B0005BFF8FE7037C33B9D0F8B8325B6B0DF156
:1039C0000600984774E72946FFF74EFF82E7037C1D
:1039D00043B9D0F8B8321B6B0DF1060098470723A6
:1039E000437065E72946FFF73FFF73E72946FFF776
:1039F0003BFF6FE729462046FFF736FF6AE7204680
:103A000000F0D2FA66E738B504468B88FBB9CB885C
:103A1000EBB94B887F2B1AD803F07F0590F89C32C6
:103A2000DBB2032B0CD080F89E522946FDF7EAF951
:103A3000204600F0B9FA35B1022384F89C3209E03F
:103A4000FFF712FF06E0012384F89C3202E02046D3
:103A5000FFF70AFF38BD000070B504460E468D78AA
:103A60002F4B1D70012D10D890F89C32DBB2022B29
:103A70000FD0032B26D0FFF7F7FE294B19782046ED
:103A8000FFF70AFD0325284670BDFFF7EDFE03256D
:103A9000F9E7A5B145602946FFF7F5FC054638B1C1
:103AA00031462046FFF7E0FE022384F89C32EAE725
:103AB000204600F079FA032384F89C32E3E700F013
:103AC00073FAE0E7CDB141688D4225D0C9B2FFF766
:103AD000E3FC134B197861602046FFF7D4FC0546E0
:103AE000B0B131462046FFF7BFFE21792046FFF7EF
:103AF000D3FC022384F89C32C5E7022380F89C3271
:103B000045602946FFF7C8FC204600F04DFABAE7A9
:103B1000204600F049FAB6E700F046FA0025B2E781
:103B2000E815002008B5CB88012B0BD190F89C320A
:103B3000DBB2022B09D9032B09D10122011D00F0B0
:103B400007FA01E0FFF790FE08BD5BB213B9FFF77B
:103B50008BFEF9E70146002341F8083F012200F0FF
:103B6000F7F9F1E708B590F89C32013B022B12D827
:103B7000CB88022B0CD10123C360D0F8A4320BB147
:103B80000323C360022200F10C0100F0E1F908BD3B
:103B9000FFF76AFEFBE7FFF767FEF8E708B54B881B
:103BA000012B04D0022B07D0FFF75EFE08BDC0F842
:103BB000A43200F0F9F9F9E78B881B0A80F8A032EB
:103BC00000F0F2F9F2E708B590F89C32013B022BC5
:103BD00009D84B88012B00D008BD0023C0F8A432BF
:103BE00000F0E2F9F8E7FFF73FFEF5E738B50C78AB
:103BF00004F06004202C06D0402C04D06CB1FFF7F8
:103C000033FE002407E0D0F8D432AE3350F823302E
:103C10009B6898470446204638BD4D78092D1DD82D
:103C2000DFE805F012191C161C08051C0F0BFFF726
:103C300025FEF0E7FFF7E7FEEDE7FFF70DFF04468F
:103C4000E9E7FFF76FFFE6E7FFF78CFF2C46E2E7B7
:103C5000FFF7A4FFDFE7FFF7B6FFDCE7FFF704FE9F
:103C6000D9E770B505460C460B7803F06003202BAE
:103C700007D0402B05D023B1FFF7F6FD00263046D4
:103C800070BD95F89C32013B022B26D82179012981
:103C900005D921462846FFF7E7FD0026EFE728462D
:103CA000FFF7CCFC68B900F1AE0255F8222091680C
:103CB00089B1C5F8D402936821462846984706463C
:103CC00000E00326E388002BD9D1002ED7D1284667
:103CD00000F06AF9D3E70326F4E721462846FFF708
:103CE000C3FD0026CBE72DE9F04106460D468B8843
:103CF000DFB20C7804F06004202C08D0402C06D0F1
:103D0000DCB1FFF7B1FD00242046BDE8F081394663
:103D10003046FFF795FC0446002840F0F880C6F8CE
:103D2000D40200F1AE0356F823309B68002BEBD091
:103D30002946304698470446E6E791F80180B8F1F5
:103D4000010F31D0B8F1030F05D0B8F1000F67D0E3
:103D5000FFF78AFDD8E790F89C32DBB2022B04D043
:103D6000032B12D0FFF780FDCEE70FB1802F04D1D7
:103D700029463046FFF778FDC6E73946FDF732F8A9
:103D800080213046FDF72EF8BEE74B8823B91FB1DE
:103D9000802F01D0CB881BB1304600F005F9B3E786
:103DA0003946FDF71FF8F7E790F89C32DBB2022B9B
:103DB00004D0032B12D0FFF757FDA5E70FB1802FDA
:103DC00004D129463046FFF74FFD9DE73946FDF700
:103DD00009F880213046FDF705F895E74B88002B60
:103DE00092D117F07F0F17D1304600F0DDF8394639
:103DF0003046FFF725FC002886D1C6F8D40200F132
:103E0000AE0256F822209268002A00F082802946ED
:103E100030469047044677E73946FCF7EBFFE3E787
:103E200090F89C22D2B2022A05D0032A27D0FFF7AD
:103E30001BFD444668E70FB1802F13D113F0800FAC
:103E400014D107F07F0707EB8707B90001F5A871C8
:103E50003144043100230B600222304600F078F830
:103E6000444651E7FFF700FD44464DE707F07F0762
:103E700007EB8707B900103131440431EAE75BB240
:103E8000002B1FDB07F00F0202EB820200EB820225
:103E9000B2F864211AB3002B25DB07F07F0303EB94
:103EA00083039C0004F5A874344404340FB1802FBC
:103EB00022D10023236002222146304600F048F838
:103EC000444621E707F00F0202EB820200EB820278
:103ED000928C002ADFD1FFF7C7FC444614E7FFF7B6
:103EE000C3FC444610E707F07F0303EB83039C0009
:103EF000103434440434D9E739463046FCF72AFFFD
:103F000010B101232360D6E700232360D3E7002408
:103F1000FAE60446F8E6D0B170B50D4616460446FA
:103F2000FFF784FC431C5B009BB233802B700323A0
:103F30006B70022307E0EA5401345A1CD2B200210C
:103F4000A9540233DBB22278002AF4D170BD704745
:103F500008B513460222C0F894228361C3610A4661
:103F60000021FCF757FF002008BD08B513460A469C
:103F70000021FCF74FFF002008BD08B513460322BF
:103F8000C0F89422C0F85831C0F85C310A460021CC
:103F9000FCF748FF002008BD08B513460A4600217B
:103FA000FCF740FF002008BD08B50422C0F89422A9
:103FB00000231A461946FCF72DFF002008BD08B55E
:103FC0000522C0F8942200231A461946FCF72AFF5E
:103FD000002008BD10B5D0F8D43203F1B00250F87B
:103FE00022408CB100EB820043687BB194F8000260
:103FF000FF280DD09B6894F8012221469847FF23A3
:1040000084F80032002010BD0320FCE70020FAE70E
:104010000020F8E70A23038000487047EC000020E6
:10402000F8B506460F4F82213846FFF7E0FB0546FC
:1040300001213846FFF7DBFB044681213846FFF7B4
:10404000D6FB0DB11022AA711CB1402222710022B0
:10405000627118B140220271002242714323338001
:104060000048F8BDA8000020F8B506460F4F822191
:104070003846FFF7BCFB054601213846FFF7B7FB82
:10408000044681213846FFF7B2FB0DB11022AA7118
:104090001CB1402222710022627118B140220271CB
:1040A00000224271432333800048F8BDA80000205D
:1040B000F8B506460F4F82213846FFF798FB0546B4
:1040C00001213846FFF793FB044681213846FFF76C
:1040D0008EFB0DB11022AA711CB1002222710222A6
:1040E000627118B1002202710222427143233380AF
:1040F0000048F8BDA800002038B5D0F8D432B0335D
:1041000050F8235095B10446FCF73BFEC5F80C026D
:10411000D4F8D432B03304EB83046368DB6805F56C
:104120000371D5F804029847002038BD0320FCE74E
:1041300038B5D0F8C852D0F8D432B03350F8234054
:1041400084B301F00F0303EB830200EB8202926958
:104150004AB103EBC30C05EB8C05AD6CB2FBF5FC6F
:1041600005FB1C2292B10023C4F81432D0F8D432DB
:10417000B03300EB830043681B69ABB10A4604F51A
:104180000471D4F808029847002038BD03EB83037C
:1041900000EB830300249C6123462246FCF73AFE91
:1041A0002046F2E70320F0E70020EEE7F0B583B009
:1041B000D0F8D43203F1B00250F8227000228DF80A
:1041C0000720ADF80420002F7BD004460D46097867
:1041D00011F0600634D0202E6CD1EA882AB311F099
:1041E000800F07D16B7887F80032EA883F2A13D80E
:1041F000D2B212E0B03300EB83035B689B683946B0
:1042000068789847EA88072A28BF07223946204657
:10421000FFF79EFE002651E0402287F80122394632
:104220002046FFF7AAFE002648E0B03300EB8304E7
:1042300063689B68002229466878984700263DE01D
:104240006F780B2F31D8DFE807F006393030303087
:1042500030303030162690F89C32DBB2032B04D07D
:104260002946FFF701FB032628E0022201A9FFF7F8
:104270006FFE3E4622E090F89C32DBB2032B04D066
:104280002946FFF7F1FA032618E001220DF1070194
:10429000FFF75EFE12E090F89C32DBB2032B0DD0EC
:1042A0002946FFF7E1FA032608E02946FFF7DCFA82
:1042B000032603E02946FFF7D7FA0326304603B06A
:1042C000F0BD0326FAE738B504468121FCF782FDEC
:1042D0000025258701212046FCF77CFDA4F87851B4
:1042E00082212046FCF776FDA4F84C50A4F84E50ED
:1042F000D4F8D43203F1B00254F822209AB1B0338A
:1043000004EB83035B685B689847D4F8D432B0331E
:1043100054F82300FCF740FDD4F8D432B03344F80D
:104320002350C4F8BC52002038BD70B504464FF489
:104330000770FCF72DFD002849D005464FF40772A1
:10434000002102F0F3F8D4F8D432B03344F823500B
:10435000C4F8BC52237C002B41D14FF400730222DD
:1043600081212046FCF72BFD012626874FF40073A0
:10437000022231462046FCF722FDA4F87861102382
:10438000A4F84E300823032282212046FCF717FDB3
:104390000123A4F84C300026C5F80462D4F8D432C6
:1043A000B03304EB83035B681B689847C5F814625D
:1043B000C5F81862D5F8042262B3257C1DBB4FF402
:1043C000007301212046FCF72DFD284670BDD4F86E
:1043D000D432B033002244F823200225F5E74023ED
:1043E000022281212046FCF7EAFC01262687402391
:1043F000022231462046FCF7E2FCA4F87861102343
:10440000A4F84E30BEE7402301212046FCF70AFD08
:104410000025DAE70225D8E739B1D0F8D432B03335
:1044200000EB830041600020704703207047D0F804
:10443000D432B03350F823302BB1C3F80812C3F88C
:1044400010220020704703207047D0F8D432B033D8
:1044500050F823301BB1C3F804120020704703202A
:10446000704708B5D0F8D432B03350F823209AB151
:10447000D2F814320BB1012008BD0123C2F8143266
:10448000D2F81032C362D2F81032D2F80822812159
:10449000FCF7C0FC0020EFE70320EDE710B5D0F8F3
:1044A000D432B03350F8232092B1047C44B94FF495
:1044B0000073D2F804220121FCF7B4FC204610BDA1
:1044C0004023D2F804220121FCF7ACFC0024F5E7DC
:1044D0000324F3E70C4BD3F8FC2022F08072C3F8DE
:1044E000FC20D3F8FC2042F08072C3F8FC20A3F536
:1044F0005D431A6822F001021A601A6842F0010254
:104500001A6000225A60704700ED00E000F10803D5
:1045100043604FF0FF328260C36003610023036099
:10452000704700230361704743684B609A688A6054
:10453000516099600861036801330360704730B4CB
:104540000D68B5F1FF3F11D000F108031C465B6810
:104550001A68AA42FAD963684B6099608C606160FE
:10456000086103680133036030BC70470469F2E7F7
:104570000369416882688A60416851605A68824272
:1045800006D0002202611A68013A1A601868704762
:1045900082685A60F5E70000074B1B68012BFBD9C6
:1045A0004FF0E0234FF08052C3F8042DBFF34F8F3C
:1045B000BFF36F8FF0E700BFF8150020002301E084
:1045C000013001330278A52AFAD0C3F38F00704777
:1045D000074B1B681B6823B9064B4FF0FF321A606C
:1045E0007047034B1B68DB681A68024B1A60704700
:1045F000F0150020981600202DE9F04780460D4662
:1046000017469946089EDDF824A00A9C9200A52131
:10461000206B01F08BFF236B07F18042013A03EB23
:10462000820727F00707A5B34FF0000CBCF1130F6A
:104630000BD815F80C2004EB0C0383F8342015F884
:104640000C3013B10CF1010CF0E7002384F8473073
:10465000042E00D90426E662201DFFF762FF04F154
:104660001800FFF75EFF2461C6F10506A6616462CB
:104670000023236584F854304A464146384600F00A
:1046800065FB2060BAF1000F01D0CAF80040BDE818
:10469000F087002384F83430DAE7000038B50024CE
:1046A00007E004EB840293000C481844FFF72EFF48
:1046B0000134042CF5D90A4D2846FFF727FF094C91
:1046C0002046FFF723FF0848FFF720FF0748FFF7C2
:1046D0001DFF074B1D60074B1C6038BDF8150020FF
:1046E0006C16002080160020A4160020BC160020A6
:1046F000F0150020F415002010B582B0044600F03B
:1047000051FB2B4A1368013313602A4B1B685BB1C2
:10471000294B1B686BB9274B1B68DA6AE36A9A421C
:1047200007D8244B1C6004E0224B1C601368012B4B
:104730003BD0224A136801331360A36464B120465E
:1047400001F09CFC236B2268D21A0092E26A04F109
:104750003401204600F028FE204601F0D7FCE06A34
:1047600001238340164A11680B43136000EB80005D
:10477000211D144B03EB8000FFF7D6FE00F034FB45
:104780000D4B1B687BB10B4B1B68DA6AE36A9A42DC
:1047900009D24FF0E0234FF08052C3F8042DBFF34D
:1047A0004F8FBFF36F8F02B010BDFFF777FFC0E7E9
:1047B0005C160020EC150020B816002064160020BE
:1047C00068160020F815002070B504460D46214BF0
:1047D0001E68214B18680430FFF7CAFE50B91E4B03
:1047E0001B68DA6A012303FA02F21C490B6823EA08
:1047F00002030B60B4F1FF3F11D03444164B1B6829
:104800005C60A64214D9144C2068042101F0A2FC7B
:10481000134B186821680431FFF791FE70BD002D1D
:10482000EBD00D4B196804310E48FFF77DFEF5E71C
:10483000094D2868042101F08DFC0B4B186829688C
:104840000431FFF77CFE094B1B68A342E6D9074BF6
:104850001C60E3E7D0160020EC150020681600204D
:10486000F4150020BC160020F0150020981600203A
:104870002DE9F04385B00746884614461E46900051
:1048800000F084FCF0B18146582000F07FFC054622
:10489000A0B1C0F83090D5B10023039302950D9BD1
:1048A00001930C9B00933346224641463846FFF75E
:1048B000A3FE2846FFF720FF012005E0484600F050
:1048C000EDFCE8E74FF0FF3005B0BDE8F0834FF0B6
:1048D000FF30F9E700B583B01E4B0193002300932E
:1048E00064221D491D48FFF7C3FF012807D0B0F11E
:1048F000FF3F26D01A4B1B6803B05DF804FB4FF056
:10490000500383F31188BFF36F8FBFF34F8F154BA5
:104910004FF0FF321A60144B01221A60134B002231
:104920001A60134B1A680B4B1B689A4206D0104B47
:10493000186801F0C7FB00F0D7FADBE701F08AFB4B
:10494000F9E74FF0500383F31188BFF36F8FBFF384
:104950004F8FFEE794160020DC6E00089945000892
:10496000F800002098160020B8160020D01600206D
:10497000EC150020024A136801331360704700BF32
:104980006016002008B500F03BFB014B186808BD1D
:10499000D0160020F8B53C4B1B68002B6CD13B4B6C
:1049A0001D6801351D60C5B9394B1B681B6843B1D3
:1049B0004FF0500383F31188BFF36F8FBFF34F8F16
:1049C000FEE7334A1168334B186810601960324AA9
:1049D000136801331360FFF7FBFD304B1B68AB42DC
:1049E00040D900272E4B1B68DB6A03EB83039A0038
:1049F0002C4B9B58012B00D901272B4B1B68002BFC
:104A00003FD001273DE00127214B1B681B685BB3AA
:104A10001F4B1B68DB68DC6863689D4229D3261D39
:104A20003046FFF7A5FDA36A1BB104F11800FFF79C
:104A30009FFD204601F06AFBE36A01229A401B4970
:104A4000086802430A6003EB83039A003146154865
:104A50001044FFF769FDE26A114B1B68DB6A9A425A
:104A6000D1D2D1E70027CFE70C4B4FF0FF321A60CD
:104A7000B8E70A4A1360B5E70D4A136801331360BB
:104A800000273846F8BD00BF60160020D016002071
:104A9000F0150020F41500209C1600209816002028
:104AA000EC150020F8150020D41600206816002010
:104AB000A016002038B5364B1B6843B94FF05003A1
:104AC00083F31188BFF36F8FBFF34F8FFEE700F0C2
:104AD00069F92F4B1A68013A1A601B68002B52D1F2
:104AE0002C4B1B680BB900244EE000242A4B1B689A
:104AF00033B3294BDB68DC6804F11800FFF738FD9D
:104B0000251D2846FFF734FD204601F0FFFAE06A34
:104B100001238340214A11680B43136000EB80009E
:104B200029461F4B03EB8000FFF7FEFCE26A1D4B9A
:104B30001B68DB6A9A42D9D31B4B01221A60D5E766
:104B40000CB1FFF745FD194B1C6884B9164B1C6866
:104B5000D4B14FF0E0234FF08052C3F8042DBFF3DF
:104B60004F8FBFF36F8F01240EE0013C07D0FFF79A
:104B700011FF0028F9D00C4B01221A60F5E70B4B0E
:104B800000221A60E2E7002400F02EF9204638BD2A
:104B9000601600205C160020A41600206816002075
:104BA000F8150020EC150020D4160020A0160020D7
:104BB00010B5C8B10446124B1B6843B14FF0500307
:104BC00083F31188BFF36F8FBFF34F8FFEE7FFF7BB
:104BD000D1FE2146232001F0B7F800212046FFF73F
:104BE000F3FDFFF767FF48B94FF0E0234FF0805225
:104BF000C3F8042DBFF34F8FBFF36F8F10BD00BFFD
:104C00006016002008B5264B1B681BB1254B0122FE
:104C10001A6008BD234B00221A60234B1B68B3FAAD
:104C200083F3DBB2C3F11F0303EB83018A001F4947
:104C30008A5842B94FF0500383F31188BFF36F8F46
:104C4000BFF34F8FFEE7194903EB830082000A444C
:104C500050684068506003EB830C4FEA8C020832C6
:104C60001144884212D003EB83039A000F4B134484
:104C70005B68DA680E4B1A601A680E4B1B689A4222
:104C80000BD00B4B186801F01DFAC2E74068624672
:104C90009100064A0A445060E5E701F0DBF9B8E705
:104CA00060160020D416002068160020F815002099
:104CB000EC1500209416002008B5034618B1186BB7
:104CC000FFF77CFC08BD014B1B68F8E7EC150020E2
:104CD00082B0002301930D4B1B68B3F1FF3F08D056
:104CE0004FF0500383F31188BFF36F8FBFF34F8FE3
:104CF000FEE74FF0500383F31188BFF36F8FBFF3CC
:104D00004F8F019B002BFCD002B07047FC000020AD
:104D100008480068006880F308884FF0000080F3BE
:104D2000148862B661B6BFF34F8FBFF36F8F00DF99
:104D300000BF000008ED00E0DFF80C00016841F45E
:104D4000700101607047000088ED00E04FF0807353
:104D500040F8043C21F0010140F8081C054B40F8E4
:104D60000C3C40F8202C6FF0020340F8243C4438FF
:104D7000704700BFD14C0008000000000000000098
:104D8000074B19680868B0E8F04F80F30988BFF353
:104D90006F8F4FF0000080F311887047AFF30080F1
:104DA000EC1500204FF0500383F31188BFF36F8F91
:104DB000BFF34F8F0B4A136801331360012B00D0F0
:104DC00070474FF0E023D3F8043D13F0FF0FF7D006
:104DD0004FF0500383F31188BFF36F8FBFF34F8FF2
:104DE000FEE700BFFC000020094B1B6843B94FF0F1
:104DF000500383F31188BFF36F8FBFF34F8FFEE72C
:104E0000013B034A13600BB983F31188704700BF5D
:104E1000FC00002000000000000000000000000076
:104E2000EFF30980BFF36F8F154B1A681EF0100F58
:104E300008BF20ED108A20E9F04F10602DE909002D
:104E40004FF0500080F31188BFF34F8FBFF36F8F87
:104E5000FFF7D8FE4FF0000080F3118809BC1968F5
:104E60000868B0E8F04F1EF0100F08BFB0EC108AD1
:104E700080F30988BFF36F8F704700BFAFF30080E6
:104E8000EC15002008B54FF0500383F31188BFF3F1
:104E90006F8FBFF34F8F01F091F8FFF77BFD58B193
:104EA00001F0C4F84FF0E0234FF08052C3F8042D16
:104EB000002383F3118808BD01F0A4F8F8E700008F
:104EC0004FF0E022002313619361054B1B680549F5
:104ED000A1FB03135B09013B536107231361704777
:104EE0006C000020D34D62104FF0E023D3F8002D6A
:104EF0003D4B9A421CD04FF0E023D3F8002D3B4BA2
:104F00009A421ED030B583B0394B1A78D2B2019292
:104F1000FF221A701B78DBB28DF803309DF8033046
:104F200003F05003334A1370334B07221A601BE01F
:104F30004FF0500383F31188BFF36F8FBFF34F8F90
:104F4000FEE74FF0500383F31188BFF36F8FBFF379
:104F50004F8FFEE7284A1368013B13609DF803302A
:104F60005B00DBB28DF803309DF8033013F0800F47
:104F7000F0D1214B1B68032B08D04FF0500383F373
:104F80001188BFF36F8FBFF34F8FFEE71B021A4AE2
:104F9000136003F4E0631360019BDBB2144A1370E7
:104FA0004FF0E024D4F8203D43F47003C4F8203DD2
:104FB000D4F8203D43F07043C4F8203DFFF780FF54
:104FC00000250E4B1D60FFF7B7FED4F8343F43F0C9
:104FD0004043C4F8343FFFF79BFEFFF713FEFFF793
:104FE00077FE284603B030BD71C20F4170C20F4139
:104FF00000E400E0D8160020DC160020FC000020B1
:10500000EFF305830F2B0FD9114A9B5CDBB2114ADA
:1050100012789A4208D94FF0500383F31188BFF3F6
:105020006F8FBFF34F8FFEE74FF0E023D3F80C3DB7
:1050300003F4E063084A1268934208D94FF0500322
:1050400083F31188BFF36F8FBFF34F8FFEE7704775
:10505000F0E300E0D8160020DC16002082B0174BE9
:10506000FF221A701B78DBB28DF80730144B072231
:105070001A6009E0124A1368013B13609DF807307B
:105080005B00DBB28DF807309DF8073013F0800F1E
:10509000F0D10B4B1B68032B08D04FF0500383F368
:1050A0001188BFF36F8FBFF34F8FFEE71B02044AD7
:1050B000136003F4E063136002B0704700E400E0A3
:1050C000DC160020124A12F0070F1ED0D11D21F06D
:1050D0000701C1F5804313440A460E4802600021CF
:1050E00041601344083B23F007030B4803605960F9
:1050F0001960991A51601360084B1960084B1960C8
:10510000084B4FF000421A6070474FF48043E4E7C9
:10511000E4160020F8560020E0160020EC5600208F
:10512000E8560020E4560020164B1A461B688342BE
:10513000FBD3516802EB010C844509D0416800EBB8
:10514000010C634509D00360904219D0106070478C
:105150004068014451601046F0E710B40A4C2468DE
:10516000A3420BD05B681944416013681B6803605D
:10517000904200D010605DF8044B70470460F7E780
:10518000704700BFF8560020E016002038B50446EE
:10519000FFF7F0FB3B4B1B68DBB13B4B1B681C4232
:1051A00055D1631E13F10A0F53D804F1080214F00D
:1051B000070F05D022F007030833934258D91A4647
:1051C000002A57D0314B1B68934255D330490C68A5
:1051D00004E0FFF777FFE0E721461C46636893424F
:1051E00002D22368002BF7D1264B1B68A34245D07F
:1051F0000D68083523680B6063689B1A102B10D963
:10520000A01810F0070F08D04FF0500383F3118857
:10521000BFF36F8FBFF34F8FFEE743606260FFF70E
:1052200083FF626819490B689B1A0B60194909686A
:105230008B4201D217490B60134B1B681343636009
:1052400000232360144A13680133136002E0002531
:1052500000E00025FFF72EFC15F0070F10D04FF0EF
:10526000500383F31188BFF36F8FBFF34F8FFEE7B7
:105270000025EFE70025EDE70025EBE70025E9E74E
:10528000284638BDE0160020E4560020E8560020ED
:10529000F8560020EC560020F0560020002834D0AC
:1052A00038B50446A0F1080550F8043C174A1268C6
:1052B000134208D14FF0500383F31188BFF36F8F6F
:1052C000BFF34F8FFEE750F8081C41B14FF0500379
:1052D00083F31188BFF36F8FBFF34F8FFEE723EA8D
:1052E000020340F8043CFFF745FB54F8041C084A4D
:1052F00013680B4413602846FFF716FF054A13682E
:1053000001331360FFF7D6FB38BD7047E456002029
:10531000E8560020F456002008B5034800F034FE9B
:10532000024800F031FE08BDE46E0008186F000866
:1053300008B5064B1868064B064A014600F006FB06
:105340004FF0805000F038FB08BD00BF6C0000201B
:1053500019530008786F000808B5FFF713FBC30E58
:105360004101091A63F100039B0043EA917389002C
:10537000091843F100031B01080143EA117108BD3C
:1053800010B586B00024019402940394049405940B
:105390000190029103920493089B059301A800F0E9
:1053A00091FD06B010BD0000F0B583B005460C4677
:1053B00016461F4605221349204601F099F8D0B140
:1053C000114B1A68072A18D8104B02EB820003EB26
:1053D000800143F820504C608E60CF60089B0B61C9
:1053E0000132094B1A60089B00933B463246214626
:1053F0002846FFF7C5FF03B0F0BD054800F014FFD5
:10540000F9E700BFDC6E00080057002004570020B9
:10541000286F0008F0B583B0002511E00B4E05EBB6
:105420008504A70006EB8404F059FFF745FC2061D2
:105430000090E368A2686168F059FFF7A1FF0135A9
:10544000034B1B68AB42E9D803B0F0BD0457002002
:10545000005700200369C268934204D88068801A0C
:105460000344581E70479B1A581E70472DE9F84395
:10547000044688461646C5688768A7EB0509914526
:1054800009D94068284401F043F8BFF35F8F3544E1
:10549000E560BDE8F88340684A46284401F038F8E2
:1054A000ED1B35442A4608EB0901606801F030F82D
:1054B000BFF35F8FE560ECE72DE9F84306468846C9
:1054C0001746C5684FF000091AE0641B621EB368F6
:1054D0005C1B944228BF1446BC4228BF3C467068FF
:1054E00022464146284401F013F8A144A0443F1B42
:1054F0002544B368AB420BD0BFF35F8FF5604FB16B
:105500003469A542E1D3B268641B1444621EDEE72D
:105510000025F1E74846BDE8F883000010B5154CBA
:10552000A8220021204601F001F8032323616361D2
:10553000114AA261114BE3614FF48063236200239F
:10554000A3626362E36222660D4A62661022A2666B
:105550002367E3666367BFF35F8F06E0C3F10F0263
:105560000849895C034AD15401330F2BF6D9BFF3A4
:105570005F8F10BDA4570020806F00085C5800208A
:105580004C5800208C6F00082DE9F04704468846EF
:105590009146274B1B78C3B104EB4403244A02EB2A
:1055A000C3039F6A5D6AAF4212D80026ED1B4D45CA
:1055B00028BF4D4665BB2EB104EB44041C4800EBEC
:1055C000C404A7623046BDE8F087FFF7A7FFE3E712
:1055D000134604EB440A02EBCA0ADAF82060F61B11
:1055E0004E4528BF4E46621C02EB420203EBC2034B
:1055F000596832463944404600F08AFFB044A9EB6E
:1056000006093744DAF82030BB42CFD10027CDE776
:10561000631C03EB4303064A02EBC30359682A46A3
:105620003944404600F074FF2E442F44C3E700BFC6
:10563000A45700202DE9F047044688469146244BA4
:105640001B78C3B104EB4403214A02EBC3031F6F71
:10565000DD6EAF4212D80026ED1B4D4528BF4D46EA
:105660003DBB2EB104EB4404194800EBC40427678A
:105670003046BDE8F087FFF751FFE3E704EB440A4B
:1056800002EBCA0ADAF86860F61B4E4528BF4E46A0
:10569000DAF8641032463944404600F039FFB0442D
:1056A000A9EB06093744DAF86830BB42D4D10027A9
:1056B000D2E704EB4403064A02EBC303596E2A46C1
:1056C0003944404600F024FF2E442F44C9E700BF70
:1056D000A4570020F8B50E46154600EB4000C00068
:1056E0006030144F07447C69012C11D0022C1CD06F
:1056F00014B100242046F8BD3846FFF7ABFE8542C2
:10570000F8D82A4631463846FFF7B0FE2C46F1E776
:105710003846FFF79FFE2C46854228BF04462246A6
:1057200031463846FFF7A2FEE4E73846FFF7C4FEED
:105730000446DFE7A4570020F8B504460D46164698
:10574000094B1B786BB1EFF311874FF0200181F308
:105750001188324629462046FFF7BCFF87F311889F
:10576000F8BDFFF7DBFEEEE7A4570020F8B50746CB
:105770000E4615461C461F4B1B78002B34D0EFF30A
:1057800011824FF0200181F31188002000F1010CFB
:105790000CEB4C0C174B03EBCC0CDCF8043023B1B6
:1057A0000130144B1B698342F0DC124B1B698342AE
:1057B0001DDD104B411C01EB410C4FEACC0C43F8B2
:1057C0000C7001EB410103EBC1014E6000EB4001A5
:1057D00003EBC1031D62002199625962DC62BFF3D1
:1057E0005F8F82F31188F8BDFFF798FEC7E74FF08F
:1057F000FF30F6E7A45700202DE9F04104460F469C
:10580000164698461548007810B3022C23D8EFF3BB
:1058100011834FF0200181F311885CB104EB440047
:105820000E4D05EBC00007664666C0F86880002292
:105830000267C26604EB4404084800EBC404069AFD
:105840006267BFF35F8F83F311880020BDE8F081AA
:10585000FFF764FED9E74FF0FF30F7E7A4570020C9
:1058600084460B4629B310B4002100E001315C5C92
:10587000002CFBD1914200D80A46FE2A04D860468B
:1058800000F8012B00210FE0FF218CF800108CF8AC
:105890000120110A0CF103008CF80210F2E713F852
:1058A00001CB00F801CB01319142F8D35DF8044BF4
:1058B0007047002200F8012B002104E013F801CB0F
:1058C00000F801CB01319142F8D37047073070479F
:1058D00030B585B001238DF804301A4B5B690DF1AA
:1058E000050204E063F07F0102F8011BDB097F2B56
:1058F000F8D802F8013B144B5D68124BDB68EB1AD9
:1059000004E063F07F0102F8011BDB097F2BF8D86C
:1059100002F8013B01A9521A0A4B5878FAF760FCC9
:10592000044600F033FD3CB1064BDD601A78013AC5
:105930001A70204605B030BD024A536901335361E5
:10594000F7E700BF685C0020001000E02DE9F04799
:1059500082B007460E4690461D46DFF85890002359
:105960004FF480520F494846FFF700FFC0B20E4C7B
:10597000607020764FF0000ACDF800A008230B4A93
:105980004946FFF739FFC4F810A0094B5B68E36094
:10599000C4F820806760A660656284F800A002B049
:1059A000BDE8F087905C0020685C00205C5C002013
:1059B000001000E0A06F0008014B1861704700BFA5
:1059C000685C002008B5034B1B6A13B15B6803B128
:1059D000984708BD685C002010B5064B1C6824B9C8
:1059E00010BD98472469002CFAD0E368002BF8D149
:1059F000F8E700BF746D002010B5EFF311844FF08D
:105A0000200181F311880B48FFF760FF0A4B1B78D8
:105A1000014604E063F07F0201F8012BDB097F2BD4
:105A2000F8D801F8013B1B2200F0B2F884F311888A
:105A300010BD00BF906C0020645C002038B52A4D7A
:105A400001232B70EFF311844FF0200181F31188B3
:105A50000A2226496878FAF7C3FB84F3118800F01C
:105A600095FC0A2000F05CF9EFF311844FF020015F
:105A700081F311881E48FFF729FF6A68034604E096
:105A800062F07F0103F8011BD2097F2AF8D803F8DE
:105A9000012B154A926804E062F07F0103F8011BB4
:105AA000D2097F2AF8D803F8012B0F4A126904E0C3
:105AB00062F07F0103F8011BD2097F2AF8D819464A
:105AC00001F8022B00225A70182200F061F884F3CA
:105AD0001188054B5B6A03B1984700F07FF9FFF727
